:100000000C9438000C9455000C9455000C94550039
:100010000C9455000C94D9070C9455000C94550081
:100020000C9455000C94B0070C9455000C94870761
:100030000C94E1050C94A1090C9478090C944F09D7
:100040000C9455000C9455000C9455000C945500DC
:100050000C945500430547054B054F0553055705BF
:100060005B05E806EF06F606FD0604070B07120718
:1000700011241FBECFE5D8E0DEBFCDBF10E0A0E663
:10008000B0E0E4E9F4E102C005900D92A23CB107B2
:10009000D9F720E0A2ECB0E001C01D92AD3DB2075F
:1000A000E1F70E94CA090C94480A0C940000CF930F
:1000B000DF93CDB7DEB760970FB6F894DEBF0FBE03
:1000C000CDBF8091C5008F5F8093C50060E080E068
:1000D0000E94C2018091C5004AE0BE016F5F7F4F60
:1000E00090E00E94130A87E890E00E94B301CE01DD
:1000F00001960E94B30161E080E00E94C2018091FC
:10010000C4004AE0BE016F5F7F4F90E00E94130A77
:100110008DE890E00E94B301CE0101960E94B301E8
:100120008091C5008093C30083EC90E00E9443035C
:100130008091C4008093C20082EC90E00E9443034F
:1001400060960FB6F894DEBF0FBECDBFDF91CF91A2
:1001500008950E9489030E94230387E590E00E948E
:100160005A030E94E10265EC70E084EC90E00E948A
:10017000AA030E94820380E690E00E94430380E08D
:10018000089584EC90E00E94F60280E008954FEF1D
:1001900068E080E00E94A20461E070E080E090E00E
:1001A0000E94C50240E068E080E00E94A20461E095
:1001B00070E080E090E00E94C5020895CF93DF9345
:1001C00000D01F92CDB7DEB719821A821B828FEF43
:1001D0008B8382E08A83CE0101960E9440041982BB
:1001E00084E08A83CE0101960E944004198288E04F
:1001F0008A83CE0101960E944004198280E18A839D
:10020000CE0101960E944004198280E28A83CE01C9
:1002100001960E944004198280E48A83CE010196EF
:100220000E944004198280E88A83CE0101960E94D0
:1002300040040F900F900F90DF91CF910895CF93CE
:10024000C82FC295CF70C0FF06C04FEF60E180E0BD
:100250000E94A20405C040E060E180E00E94A20488
:10026000C1FF06C04FEF60E280E00E94A20405C01B
:1002700040E060E280E00E94A204C2FF06C04FEFAF
:1002800060E480E00E94A20405C040E060E480E0F9
:100290000E94A204C87031F04FEF60E880E00E9435
:1002A000A20405C040E060E880E00E94A204CF9173
:1002B0000895CF93C82F4FEF62E080E00E94A20420
:1002C0008C2F0E941F010E94C7008C2F8295807F77
:1002D0000E941F010E94C70061E070E080E090E092
:1002E0000E94C502CF910895CF93C82F40E062E0ED
:1002F00080E00E94A2048C2F0E941F010E94C70070
:100300008C2F8295807F0E941F010E94C70061E0B0
:1003100070E080E090E00E94C502CF9108950E94B5
:10032000DE0064E170E080E090E00E94C50283E3BB
:100330000E94740182E30E94740188E20E947401A9
:100340008EE00E94740181E00E9474016AE070E016
:1003500080E090E00E94C50286E00E9474018CE07B
:100360000E9474010895CF93DF93EC018881882364
:1003700031F021960E94590189918111FBCFDF91C3
:10038000CF910895623031F0633031F0613029F45B
:10039000805C03C08C5E01C08C5A80680E9474012E
:1003A0000895CF93DF93CDB7DEB72C970FB6F894AF
:1003B000DEBF0FBECDBFFC018081813091F028F0FF
:1003C0008230D9F0833021F12DC082E0898380E131
:1003D0008A831B82CE0101960E9440041092640021
:1003E00021C081E08C8384E08D831E82CE0104963F
:1003F0000E9440041092680015C01F8284E0888724
:100400001986CE0107960E94400410926C000AC023
:100410001A8688E08B871C86CE010A960E944004CB
:100420001092700080E02C960FB6F894DEBF0FBEDD
:10043000CDBFDF91CF9108955F926F927F928F929F
:100440009F92AF92BF92CF92DF92EF92FF920F9363
:100450001F93CF93DF9300D0CDB7DEB701E610E056
:100460000F2EF3E6EF2EF0E0FF2EF02D0F2EF1E72A
:10047000CF2EF0E0DF2EF02D0F2EF3E05F2EF02DCB
:100480006894662461F877247394F801838181115C
:1004900043C0AE014F5F5F4FF70162915F01F8010A
:1004A00080810E94E90464E170E080E090E00E94B5
:1004B000C502AE014E5F5F4FF5016081F80180819A
:1004C0000E94E90489819A81891326C0F7019081ED
:1004D000913099F028F09230C1F0933031F01CC087
:1004E0008823D1F0F701708217C0882319F0F70133
:1004F000708212C0F70110820FC0882319F0F70133
:1005000060820AC0F701508207C0882319F0F70102
:10051000608202C0F70150820C5F1F4FF4E0EF0EC3
:10052000F11C0C151D0509F0B0CF80E00F900F9065
:10053000DF91CF911F910F91FF90EF90DF90CF90BF
:10054000BF90AF909F908F907F906F905F90089535
:10055000813059F028F0823069F0833081F013C087
:1005600080916300FB0180830EC080916700FB01D6
:10057000808309C080916B00FB01808304C080915F
:100580006F00FB01808380E008950F931F939B0110
:10059000AC01AAE2B3E00E94F90961157105810579
:1005A000910561F000E010E098010F5F1F4F2F4FA1
:1005B0003F4F0617170728073907B9F71F910F9103
:1005C0000895CF93DF931F92CDB7DEB71982CE0186
:1005D00001960E94D10181E08983CE0101960E949B
:1005E000D10180E00F90DF91CF9108950F931F9379
:1005F000CF93DF931F92CDB7DEB78C010E941C0210
:100600001982BE016F5F7F4F80E00E94A80289813E
:10061000813021F4F8018081815080831982BE01EC
:100620006F5F7F4F81E00E94A8028981813021F4B1
:10063000F80180818F5F808380E00F90DF91CF9100
:100640001F910F910895CF93DF93CDB7DEB7279712
:100650000FB6F894DEBF0FBECDBFCE01019627E0E6
:10066000FC0111922A95E9F721E029832D830E944C
:10067000100580E027960FB6F894DEBF0FBECDBF01
:10068000DF91CF9108950E94C40580E00895809184
:10069000C8008F5F8093C8008091C8008D3348F0F8
:1006A0001092C800E091C600F091C700309709F0A1
:1006B000099508950F931F93CF93DF9300D000D037
:1006C00000D0CDB7DEB78C01789486E0E1E7F0E0AA
:1006D000DE01119601900D928A95E1F7CE01019607
:1006E0000E9408061093C7000093C60080E026967B
:1006F0000FB6F894DEBF0FBECDBFDF91CF911F9133
:100700000F9108956FEF70E080E00E94270780E06E
:100710000895CF93DF93CDB7DEB760970FB6F89407
:10072000DEBF0FBECDBF80E1E7E7F0E0DE0111964E
:1007300001900D928A95E1F7CE0101960E94020880
:1007400080E060960FB6F894DEBF0FBECDBFDF919C
:10075000CF910895CF92DF92EF92FF920F931F9364
:10076000CF93DF93CDB7DEB7AC970FB6F894DEBF6B
:100770000FBECDBF8C017B0183E1E7E9F0E0DE0134
:10078000119601900D928A95E1F787E1EAEAF0E08F
:10079000DE01549601900D928A95E1F71BA61CA6E6
:1007A00062E370E080E090E00E94C50289818823C6
:1007B00069F0D12C0E944309D394E1E0F0E0EC0F02
:1007C000FD1FED0DF11D80818111F4CFCE018B96BF
:1007D0000E9448098BA58D3099F0C12C80538BA7BE
:1007E0009C2D990FC92ECC0CCC0C9C0DC92EC80E7B
:1007F000CE018B960E9448098BA58D3079F701C0F8
:10080000C12C8C89882369F0D12C0E944309D39490
:10081000E4E1F0E0EC0FFD1FED0DF11D8081811191
:10082000F4CFCE018C960E9448098CA58D3099F0AA
:10083000D12C80538CA79D2D990FD92EDD0CDD0C6A
:100840009D0DD92ED80ECE018C960E9448098CA5FC
:100850008D3079F701C0D12CF701C082F801D08228
:1008600080E0AC960FB6F894DEBF0FBECDBFDF912F
:10087000CF911F910F91FF90EF90DF90CF9008954F
:10088000009709F457C0FC012281222319F02F3F61
:1008900059F152C0FC012081213071F028F0223042
:1008A00099F02330C9F04AC02AB3FC0181818095B8
:1008B00082238ABB80E0089527B3FC018181809563
:1008C000822387BB80E0089524B3FC018181809559
:1008D000822384BB80E0089521B3FC01818180954F
:1008E000822381BB80E00895FC012081213069F0E2
:1008F00028F0223089F02330B1F022C02AB3FC0165
:100900008181822B8ABB80E0089527B3FC0181811D
:10091000822B87BB80E0089524B3FC018181822B68
:1009200084BB80E0089521B3FC018181822B81BBCF
:1009300080E0089581E0089581E0089581E00895C0
:1009400081E00895442319F04F3F09F13CC0813004
:1009500061F028F0823079F0833099F036C08BB3A3
:10096000609568236BBB80E0089588B36095682329
:1009700068BB80E0089585B36095682365BB80E01F
:10098000089582B36095682362BB80E0089581304A
:1009900059F028F0823069F0833081F018C08BB3B1
:1009A000682B6BBB80E0089588B3682B68BB80E040
:1009B000089585B3682B65BB80E0089582B3682BEA
:1009C00062BB80E0089581E0089581E0089581E0B0
:1009D00008954115510501F1813061F028F0823010
:1009E00079F0833099F01AC089B36823FA016083E3
:1009F00080E0089586B36823FA01608380E008955B
:100A000083B36823FA01608380E0089580B368238C
:100A1000FA01608380E0089581E0089580E0089500
:100A2000FF920F931F93CF93DF93CDB7DEB72C9731
:100A30000FB6F894DEBF0FBECDBF8C01FC018581DF
:100A400096819093CA008093C9001B8280E48A83B8
:100A5000FF24F394F982CE0101960E9440048FEFA7
:100A60008E8380EB8D83FC82CE0104960E9440042D
:100A7000F801448150E04730510500F5FA01E65D88
:100A8000FF4F0C94F309709A6898699817C0709892
:100A90006898699813C0709A689A69980FC070989E
:100AA000689A69980BC0709A6898699A07C070989C
:100AB0006898699A03C07098689A699AF801808169
:100AC0008823B9F0813049F56C9A1C8680E48B87C5
:100AD000FF24F394FA86CE010A960E9440048FEF19
:100AE000898780EB8887FF82CE0107960E944004A9
:100AF00014C06C988FEF8C8780E48B87FF24F3946D
:100B0000FA86CE010A960E944004198680EB8887F7
:100B1000FF82CE0107960E944004F801828188235B
:100B200019F0813019F003C06D9801C06D9AF80179
:100B30008381882319F0813019F003C06F9801C0B8
:100B40006F9AF8018181813049F028F0823049F0B4
:100B5000833051F00BC06A986B9808C06A9A6B9802
:100B600005C06A986B9A02C06A9A6B9A6E9A80E086
:100B70002C960FB6F894DEBF0FBECDBFDF91CF919C
:100B80001F910F91FF900895CF93DF93EC0140E008
:100B900060E181E00E94A20488818FB92EB12078A3
:100BA00030E021583F4F2F3F3105C0F38FB188838C
:100BB0004FEF60E181E00E94A20480E0DF91CF91DD
:100BC00008951F920F920FB60F9211242F933F9307
:100BD0004F935F936F937F938F939F93AF93BF9345
:100BE000EF93FF93E091C900F091CA000995FF913E
:100BF000EF91BF91AF919F918F917F916F915F9195
:100C00004F913F912F910F900FBE0F901F9018950D
:100C1000CF93DF93EC018881813009F460C020F02C
:100C2000823009F4B8C00FC18C819D81009721F0FA
:100C30009093CC008093CB0089818130B1F118F082
:100C40008230D1F100C113BE8B818430C9F028F409
:100C5000813041F0823069F0F6C08630C1F08730D3
:100C6000E9F0F1C0A881B0E0AC52BF4F81E08C93B5
:100C700029C0A881B0E0AC52BF4F82E08C9322C063
:100C8000A881B0E0AC52BF4F83E08C931BC0A88119
:100C9000B0E0AC52BF4F84E08C9314C0A881B0E0A8
:100CA000AC52BF4F85E08C930DC0A881B0E0AC5230
:100CB000BF4F87E08C9306C0A881B0E0AC52BF4F15
:100CC00086E08C938A81882339F0813009F0BBC09B
:100CD00089B7816089BFB7C089B789BFB4C08C812B
:100CE0009D81009721F09093CE008093CD00898163
:100CF0008130B9F118F08230D9F1A5C01FBC1EBCFB
:100D00008B818430C9F028F4813041F0823069F061
:100D10009AC08630C1F08730E9F095C0A881B0E074
:100D2000AC52BF4F81E08C9329C0A881B0E0AC5297
:100D3000BF4F82E08C9322C0A881B0E0AC52BF4F7D
:100D400083E08C931BC0A881B0E0AC52BF4F84E01D
:100D50008C9314C0A881B0E0AC52BF4F85E08C9357
:100D60000DC0A881B0E0AC52BF4F87E08C9306C0A5
:100D7000A881B0E0AC52BF4F86E08C938A81882373
:100D800039F0813009F05FC089B7846089BF5BC0EA
:100D900089B789BF58C08C819D81009721F09093BD
:100DA000D0008093CF008981882321F0833008F020
:100DB0004AC03EC015BC4B8150E0415051094730FC
:100DC000510508F040C04F5C5F4FFA010C94F309E5
:100DD000A881B0E0AC52BF4F81E08C9329C0A881BC
:100DE000B0E0AC52BF4F82E08C9322C0A881B0E04B
:100DF000AC52BF4F83E08C931BC0A881B0E0AC52D3
:100E0000BF4F84E08C9314C0A881B0E0AC52BF4FB8
:100E100085E08C930DC0A881B0E0AC52BF4F86E056
:100E20008C9306C0A881B0E0AC52BF4F87E08C9392
:100E30008A81882331F0813031F489B7806489BF99
:100E400002C089B789BF81E0DF91CF9108958130D9
:100E500001F118F08230D1F14EC06F3F710511F0F1
:100E600008F04BC09091D400992309F448C09650E3
:100E7000923038F412BE23B79091D400922B93BFD6
:100E800032C0609562BF23B79091D400922B93BF7C
:100E90002AC09091D5009923A1F19650923050F438
:100EA0001DBC1CBC2EB53FB59091D500292B3FBD74
:100EB0002EBD19C0609570957DBD6CBD2EB53FB53A
:100EC0009091D500292B3FBD2EBD0DC06F3F710500
:100ED00009F0C8F49091D6009923B9F0609564BDEB
:100EE00025B5922B95BDE82FF0E0EF52FF4F81E042
:100EF000808380E0089581E0089581E0089581E095
:100F0000089581E0089581E0089581E008951F9299
:100F10000F920FB60F9211242F933F934F935F932D
:100F20006F937F938F939F93AF93BF93EF93FF93B1
:100F3000E091CB00F091CC00309709F00995FF913A
:100F4000EF91BF91AF919F918F917F916F915F9141
:100F50004F913F912F910F900FBE0F901F901895BA
:100F60001F920F920FB60F9211242F933F934F931E
:100F70005F936F937F938F939F93AF93BF93EF9301
:100F8000FF93E091CD00F091CE00309709F00995E4
:100F9000FF91EF91BF91AF919F918F917F916F9151
:100FA0005F914F913F912F910F900FBE0F901F9027
:100FB00018951F920F920FB60F9211242F933F9303
:100FC0004F935F936F937F938F939F93AF93BF9351
:100FD000EF93FF93E091CF00F091D000309709F0AC
:100FE0000995FF91EF91BF91AF919F918F917F9163
:100FF0006F915F914F913F912F910F900FBE0F9086
:101000001F901895CF92DF92EF92FF920F931F934C
:10101000CF93DF9300D000D000D0CDB7DEB78C01E6
:10102000009709F420C10F2EF3E0FF2EF02DFC8273
:1010300082E08D838FEF8E83CE0104960E94400460
:10104000F98281E08A831B82CE0101960E944004CE
:10105000F80182859385009721F09093DC008093BE
:10106000DB00F80184859585009721F09093DA00E4
:101070008093D900F80186859785009721F0909399
:10108000D8008093D700F8018281882321F0813035
:1010900009F44DC0E6C05998F80186819781A08572
:1010A000B185880F991FAA1FBB1F880F991FAA1F00
:1010B000BB1F9C01AD01220F331F441F551F220F80
:1010C000331F441F551F0F2EC12CF4E2DF2EF4EF07
:1010D000EF2EF12CF02DC701B6010E94D10921504D
:1010E00029B9F80186819781A085B185880F991F5C
:1010F000AA1FBB1F880F991FAA1FBB1F9C01AD0110
:10110000220F331F441F551F220F331F441F551F2B
:10111000C701B6010E94D109DA01C9010197A109ED
:10112000B109892F9A2FAB2FBB2780BD43C0599A95
:10113000F80186819781A085B185880F991FAA1F24
:10114000BB1F880F991FAA1FBB1F9C01AD01220F57
:10115000331F441F551F0F2EC12CF4E2DF2EF4EF76
:10116000EF2EF12CF02DC701B6010E94D1092150BC
:1011700029B9F80186819781A085B185880F991FCB
:10118000AA1FBB1F880F991FAA1FBB1F9C01AD017F
:10119000220F331F441F551FC701B6010E94D109FA
:1011A000DA01C9010197A109B109892F9A2FAB2F43
:1011B000BB2780BDF8018081882339F0813009F098
:1011C00050C08AB1806E8AB903C08AB18F718AB962
:1011D000F8018181813031F018F0823029F041C06E
:1011E000539A05C0549A03C08AB188618AB9F8013C
:1011F0008481823029F0833039F0811132C007C0F8
:1012000080B5806A80BD03C080B5806B80BDF80169
:101210008381882329F0813021F580B5886880BDDD
:10122000F8018581823079F028F48823C1F081307B
:1012300031F017C0833059F0873069F012C080B5A3
:10124000826880BD0CC080B5846880BD08C080B550
:10125000866880BD04C080B5866880BD529A80E0F3
:1012600003C081E001C081E026960FB6F894DEBF8E
:101270000FBECDBFDF91CF911F910F91FF90EF90E7
:10128000DF90CF9008955D9BFECF8CB980E00895EC
:101290005F9BFECF2CB1FC01208380E008951F925C
:1012A0000F920FB60F9211242F933F934F935F939A
:1012B0006F937F938F939F93AF93BF93EF93FF931E
:1012C000E091DB00F091DC00309709F00995FF9187
:1012D000EF91BF91AF919F918F917F916F915F91AE
:1012E0004F913F912F910F900FBE0F901F90189527
:1012F0001F920F920FB60F9211242F933F934F938B
:101300005F936F937F938F939F93AF93BF93EF936D
:10131000FF93E091D700F091D800309709F009953C
:10132000FF91EF91BF91AF919F918F917F916F91BD
:101330005F914F913F912F910F900FBE0F901F9093
:1013400018951F920F920FB60F9211242F933F936F
:101350004F935F936F937F938F939F93AF93BF93BD
:10136000EF93FF93E091D900F091DA00309709F004
:101370000995FF91EF91BF91AF919F918F917F91CF
:101380006F915F914F913F912F910F900FBE0F90F2
:101390001F9018950E948F010E94A9000E94C10011
:1013A000FDCFA1E21A2EAA1BBB1BFD010DC0AA1F77
:1013B000BB1FEE1FFF1FA217B307E407F50720F0BE
:1013C000A21BB30BE40BF50B661F771F881F991F39
:1013D0001A9469F760957095809590959B01AC0182
:1013E000BD01CF010895EE0FFF1F0590F491E02D90
:1013F00009940E94040AA59F900DB49F900DA49F8C
:10140000800D911D11240895A29FB001B39FC001CA
:10141000A39F700D811D1124911DB29F700D811D20
:101420001124911D0895BB274A3031F4992322F4E9
:10143000BDE2909581959F4F0C941F0ABB27FB013D
:101440005527AA27880F991FAA1FA41710F0A41BBD
:1014500083955051B9F7A05DAA3308F0A95DA19317
:10146000009779F7B111B1931192CB010C94380A1E
:10147000DC01FC01672F71917723E1F7329704C0FB
:101480007C916D9370836291AE17BF07C8F3089586
:04149000F894FFCFFE
:10149400FF02100001010400010004000100080023
:1014A400010000010747030002010000038025003A
:1014B4000000000000000054494D453A0056454CD8
:1014C4004F434954593A00506C6561736520656E09
:1014D4007465722074696D650A00506C656173658A
:1014E40020656E7465722076656C6F636974790A21
:0214F4000000F6
:00000001FF
